{
  "contractName": "Voting",
  "abi": [
    {
      "inputs": [],
      "stateMutability": "nonpayable",
      "type": "constructor"
    },
    {
      "anonymous": false,
      "inputs": [
        {
          "indexed": false,
          "internalType": "uint256",
          "name": "id",
          "type": "uint256"
        },
        {
          "indexed": false,
          "internalType": "string",
          "name": "name",
          "type": "string"
        },
        {
          "indexed": false,
          "internalType": "string",
          "name": "party",
          "type": "string"
        },
        {
          "indexed": false,
          "internalType": "string",
          "name": "photo",
          "type": "string"
        }
      ],
      "name": "CandidateAdded",
      "type": "event"
    },
    {
      "anonymous": false,
      "inputs": [
        {
          "indexed": true,
          "internalType": "address",
          "name": "voterAddress",
          "type": "address"
        },
        {
          "indexed": false,
          "internalType": "uint256",
          "name": "candidateId",
          "type": "uint256"
        }
      ],
      "name": "VoteCast",
      "type": "event"
    },
    {
      "anonymous": false,
      "inputs": [
        {
          "indexed": true,
          "internalType": "address",
          "name": "voterAddress",
          "type": "address"
        },
        {
          "indexed": false,
          "internalType": "uint256",
          "name": "id",
          "type": "uint256"
        },
        {
          "indexed": false,
          "internalType": "string",
          "name": "name",
          "type": "string"
        }
      ],
      "name": "VoterRegistered",
      "type": "event"
    },
    {
      "inputs": [
        {
          "internalType": "uint256",
          "name": "",
          "type": "uint256"
        }
      ],
      "name": "candidates",
      "outputs": [
        {
          "internalType": "uint256",
          "name": "id",
          "type": "uint256"
        },
        {
          "internalType": "string",
          "name": "name",
          "type": "string"
        },
        {
          "internalType": "string",
          "name": "party",
          "type": "string"
        },
        {
          "internalType": "string",
          "name": "photo",
          "type": "string"
        }
      ],
      "stateMutability": "view",
      "type": "function",
      "constant": true
    },
    {
      "inputs": [
        {
          "internalType": "uint256",
          "name": "",
          "type": "uint256"
        }
      ],
      "name": "castVotes",
      "outputs": [
        {
          "internalType": "uint256",
          "name": "candidateId",
          "type": "uint256"
        },
        {
          "internalType": "uint256",
          "name": "voterId",
          "type": "uint256"
        },
        {
          "internalType": "bool",
          "name": "isVoted",
          "type": "bool"
        }
      ],
      "stateMutability": "view",
      "type": "function",
      "constant": true
    },
    {
      "inputs": [],
      "name": "owner",
      "outputs": [
        {
          "internalType": "address",
          "name": "",
          "type": "address"
        }
      ],
      "stateMutability": "view",
      "type": "function",
      "constant": true
    },
    {
      "inputs": [
        {
          "internalType": "uint256",
          "name": "",
          "type": "uint256"
        }
      ],
      "name": "registeredVoters",
      "outputs": [
        {
          "internalType": "uint256",
          "name": "id",
          "type": "uint256"
        },
        {
          "internalType": "string",
          "name": "name",
          "type": "string"
        },
        {
          "internalType": "address",
          "name": "voterAddress",
          "type": "address"
        },
        {
          "internalType": "bool",
          "name": "isRegistered",
          "type": "bool"
        },
        {
          "internalType": "bool",
          "name": "hasVoted",
          "type": "bool"
        }
      ],
      "stateMutability": "view",
      "type": "function",
      "constant": true
    },
    {
      "inputs": [
        {
          "internalType": "uint256",
          "name": "",
          "type": "uint256"
        }
      ],
      "name": "voteCounts",
      "outputs": [
        {
          "internalType": "uint256",
          "name": "",
          "type": "uint256"
        }
      ],
      "stateMutability": "view",
      "type": "function",
      "constant": true
    },
    {
      "inputs": [
        {
          "internalType": "address",
          "name": "",
          "type": "address"
        }
      ],
      "name": "voters",
      "outputs": [
        {
          "internalType": "uint256",
          "name": "id",
          "type": "uint256"
        },
        {
          "internalType": "string",
          "name": "name",
          "type": "string"
        },
        {
          "internalType": "address",
          "name": "voterAddress",
          "type": "address"
        },
        {
          "internalType": "bool",
          "name": "isRegistered",
          "type": "bool"
        },
        {
          "internalType": "bool",
          "name": "hasVoted",
          "type": "bool"
        }
      ],
      "stateMutability": "view",
      "type": "function",
      "constant": true
    },
    {
      "inputs": [
        {
          "internalType": "address",
          "name": "",
          "type": "address"
        }
      ],
      "name": "votes",
      "outputs": [
        {
          "internalType": "uint256",
          "name": "candidateId",
          "type": "uint256"
        },
        {
          "internalType": "uint256",
          "name": "voterId",
          "type": "uint256"
        },
        {
          "internalType": "bool",
          "name": "isVoted",
          "type": "bool"
        }
      ],
      "stateMutability": "view",
      "type": "function",
      "constant": true
    },
    {
      "inputs": [
        {
          "internalType": "uint256",
          "name": "_id",
          "type": "uint256"
        },
        {
          "internalType": "string",
          "name": "_name",
          "type": "string"
        },
        {
          "internalType": "string",
          "name": "_party",
          "type": "string"
        },
        {
          "internalType": "string",
          "name": "_photo",
          "type": "string"
        }
      ],
      "name": "addCandidate",
      "outputs": [],
      "stateMutability": "nonpayable",
      "type": "function"
    },
    {
      "inputs": [
        {
          "internalType": "uint256",
          "name": "_id",
          "type": "uint256"
        },
        {
          "internalType": "string",
          "name": "_name",
          "type": "string"
        },
        {
          "internalType": "address",
          "name": "_voterAddress",
          "type": "address"
        }
      ],
      "name": "registerVoter",
      "outputs": [
        {
          "components": [
            {
              "internalType": "uint256",
              "name": "id",
              "type": "uint256"
            },
            {
              "internalType": "string",
              "name": "name",
              "type": "string"
            },
            {
              "internalType": "address",
              "name": "voterAddress",
              "type": "address"
            },
            {
              "internalType": "bool",
              "name": "isRegistered",
              "type": "bool"
            },
            {
              "internalType": "bool",
              "name": "hasVoted",
              "type": "bool"
            }
          ],
          "internalType": "struct Voting.Voter",
          "name": "",
          "type": "tuple"
        }
      ],
      "stateMutability": "nonpayable",
      "type": "function"
    },
    {
      "inputs": [
        {
          "internalType": "uint256",
          "name": "_candidateId",
          "type": "uint256"
        },
        {
          "internalType": "address",
          "name": "_voterAddress",
          "type": "address"
        }
      ],
      "name": "castVote",
      "outputs": [
        {
          "components": [
            {
              "internalType": "uint256",
              "name": "candidateId",
              "type": "uint256"
            },
            {
              "internalType": "uint256",
              "name": "voterId",
              "type": "uint256"
            },
            {
              "internalType": "bool",
              "name": "isVoted",
              "type": "bool"
            }
          ],
          "internalType": "struct Voting.Vote",
          "name": "",
          "type": "tuple"
        }
      ],
      "stateMutability": "nonpayable",
      "type": "function"
    },
    {
      "inputs": [
        {
          "internalType": "uint256",
          "name": "_candidateId",
          "type": "uint256"
        }
      ],
      "name": "getVoteCount",
      "outputs": [
        {
          "internalType": "uint256",
          "name": "",
          "type": "uint256"
        }
      ],
      "stateMutability": "view",
      "type": "function",
      "constant": true
    },
    {
      "inputs": [],
      "name": "getRegisteredVotersCount",
      "outputs": [
        {
          "internalType": "uint256",
          "name": "",
          "type": "uint256"
        }
      ],
      "stateMutability": "view",
      "type": "function",
      "constant": true
    },
    {
      "inputs": [],
      "name": "getCastVotesCount",
      "outputs": [
        {
          "internalType": "uint256",
          "name": "",
          "type": "uint256"
        }
      ],
      "stateMutability": "view",
      "type": "function",
      "constant": true
    },
    {
      "inputs": [],
      "name": "getAudits",
      "outputs": [
        {
          "components": [
            {
              "internalType": "uint256",
              "name": "id",
              "type": "uint256"
            },
            {
              "internalType": "string",
              "name": "name",
              "type": "string"
            },
            {
              "internalType": "address",
              "name": "voterAddress",
              "type": "address"
            },
            {
              "internalType": "bool",
              "name": "isRegistered",
              "type": "bool"
            },
            {
              "internalType": "bool",
              "name": "hasVoted",
              "type": "bool"
            }
          ],
          "internalType": "struct Voting.Voter[]",
          "name": "",
          "type": "tuple[]"
        },
        {
          "components": [
            {
              "internalType": "uint256",
              "name": "candidateId",
              "type": "uint256"
            },
            {
              "internalType": "uint256",
              "name": "voterId",
              "type": "uint256"
            },
            {
              "internalType": "bool",
              "name": "isVoted",
              "type": "bool"
            }
          ],
          "internalType": "struct Voting.Vote[]",
          "name": "",
          "type": "tuple[]"
        }
      ],
      "stateMutability": "view",
      "type": "function",
      "constant": true
    },
    {
      "inputs": [
        {
          "internalType": "address",
          "name": "newOwner",
          "type": "address"
        }
      ],
      "name": "transferOwnership",
      "outputs": [],
      "stateMutability": "nonpayable",
      "type": "function"
    }
  ],
  "bytecode": "0x608060405234801561001057600080fd5b50336000806101000a81548173ffffffffffffffffffffffffffffffffffffffff021916908373ffffffffffffffffffffffffffffffffffffffff16021790555061216b806100606000396000f3fe608060405234801561001057600080fd5b50600436106100f55760003560e01c80638d6dcab911610097578063b2c2f2e811610066578063b2c2f2e8146102d0578063ce4a274314610300578063d8bff5a51461031c578063f2fde38b1461034e576100f5565b80638d6dcab91461022e5780638da5cb5b14610260578063a3ec138d1461027e578063a91081a1146102b2576100f5565b80633477ee2e116100d35780633477ee2e1461017c5780633c3a220d146101af578063523ec1d0146101df57806377df41b7146101fe576100f5565b806305137eb5146100fa57806315ebaa991461012a5780632436e06b14610148575b600080fd5b610114600480360381019061010f9190611654565b61036a565b60405161012191906117fa565b60405180910390f35b610132610671565b60405161013f919061182b565b60405180910390f35b610162600480360381019061015d9190611846565b61067e565b6040516101739594939291906118db565b60405180910390f35b61019660048036038101906101919190611846565b610786565b6040516101a69493929190611935565b60405180910390f35b6101c960048036038101906101c49190611846565b61095e565b6040516101d6919061182b565b60405180910390f35b6101e7610976565b6040516101f5929190611bb8565b60405180910390f35b61021860048036038101906102139190611bef565b610b8e565b6040516102259190611c71565b60405180910390f35b61024860048036038101906102439190611846565b610ecd565b60405161025793929190611c8c565b60405180910390f35b610268610f14565b6040516102759190611cc3565b60405180910390f35b61029860048036038101906102939190611cde565b610f38565b6040516102a99594939291906118db565b60405180910390f35b6102ba611030565b6040516102c7919061182b565b60405180910390f35b6102ea60048036038101906102e59190611846565b61103d565b6040516102f7919061182b565b60405180910390f35b61031a60048036038101906103159190611d0b565b61105a565b005b61033660048036038101906103319190611cde565b6111e0565b60405161034593929190611c8c565b60405180910390f35b61036860048036038101906103639190611cde565b611217565b005b610372611357565b600160008373ffffffffffffffffffffffffffffffffffffffff1673ffffffffffffffffffffffffffffffffffffffff16815260200190815260200160002060020160149054906101000a900460ff1615610402576040517f08c379a00000000000000000000000000000000000000000000000000000000081526004016103f990611e12565b60405180910390fd5b60006040518060a001604052808681526020018581526020018473ffffffffffffffffffffffffffffffffffffffff16815260200160011515815260200160001515815250905080600160008573ffffffffffffffffffffffffffffffffffffffff1673ffffffffffffffffffffffffffffffffffffffff1681526020019081526020016000206000820151816000015560208201518160010190805190602001906104af9291906113a0565b5060408201518160020160006101000a81548173ffffffffffffffffffffffffffffffffffffffff021916908373ffffffffffffffffffffffffffffffffffffffff16021790555060608201518160020160146101000a81548160ff02191690831515021790555060808201518160020160156101000a81548160ff021916908315150217905550905050600481908060018154018082558091505060019003906000526020600020906003020160009091909190915060008201518160000155602082015181600101908051906020019061058c9291906113a0565b5060408201518160020160006101000a81548173ffffffffffffffffffffffffffffffffffffffff021916908373ffffffffffffffffffffffffffffffffffffffff16021790555060608201518160020160146101000a81548160ff02191690831515021790555060808201518160020160156101000a81548160ff02191690831515021790555050508273ffffffffffffffffffffffffffffffffffffffff167f395c0d6d43344c56288325610f3471d3c61e6697b2af26e7fdbe008138839d60868660405161065e929190611e32565b60405180910390a2809150509392505050565b6000600580549050905090565b6004818154811061068e57600080fd5b90600052602060002090600302016000915090508060000154908060010180546106b790611e91565b80601f01602080910402602001604051908101604052809291908181526020018280546106e390611e91565b80156107305780601f1061070557610100808354040283529160200191610730565b820191906000526020600020905b81548152906001019060200180831161071357829003601f168201915b5050505050908060020160009054906101000a900473ffffffffffffffffffffffffffffffffffffffff16908060020160149054906101000a900460ff16908060020160159054906101000a900460ff16905085565b6006818154811061079657600080fd5b90600052602060002090600402016000915090508060000154908060010180546107bf90611e91565b80601f01602080910402602001604051908101604052809291908181526020018280546107eb90611e91565b80156108385780601f1061080d57610100808354040283529160200191610838565b820191906000526020600020905b81548152906001019060200180831161081b57829003601f168201915b50505050509080600201805461084d90611e91565b80601f016020809104026020016040519081016040528092919081815260200182805461087990611e91565b80156108c65780601f1061089b576101008083540402835291602001916108c6565b820191906000526020600020905b8154815290600101906020018083116108a957829003601f168201915b5050505050908060030180546108db90611e91565b80601f016020809104026020016040519081016040528092919081815260200182805461090790611e91565b80156109545780601f1061092957610100808354040283529160200191610954565b820191906000526020600020905b81548152906001019060200180831161093757829003601f168201915b5050505050905084565b60036020528060005260406000206000915090505481565b6060806004600581805480602002602001604051908101604052809291908181526020016000905b82821015610af857838290600052602060002090600302016040518060a0016040529081600082015481526020016001820180546109db90611e91565b80601f0160208091040260200160405190810160405280929190818152602001828054610a0790611e91565b8015610a545780601f10610a2957610100808354040283529160200191610a54565b820191906000526020600020905b815481529060010190602001808311610a3757829003601f168201915b505050505081526020016002820160009054906101000a900473ffffffffffffffffffffffffffffffffffffffff1673ffffffffffffffffffffffffffffffffffffffff1673ffffffffffffffffffffffffffffffffffffffff1681526020016002820160149054906101000a900460ff161515151581526020016002820160159054906101000a900460ff1615151515815250508152602001906001019061099e565b50505050915080805480602002602001604051908101604052809291908181526020016000905b82821015610b80578382906000526020600020906003020160405180606001604052908160008201548152602001600182015481526020016002820160009054906101000a900460ff16151515158152505081526020019060010190610b1f565b505050509050915091509091565b610b96611426565b600160008373ffffffffffffffffffffffffffffffffffffffff1673ffffffffffffffffffffffffffffffffffffffff16815260200190815260200160002060020160149054906101000a900460ff16610c25576040517f08c379a0000000000000000000000000000000000000000000000000000000008152600401610c1c90611f0e565b60405180910390fd5b600160008373ffffffffffffffffffffffffffffffffffffffff1673ffffffffffffffffffffffffffffffffffffffff16815260200190815260200160002060020160159054906101000a900460ff1615610cb5576040517f08c379a0000000000000000000000000000000000000000000000000000000008152600401610cac90611f7a565b60405180910390fd5b60018060008473ffffffffffffffffffffffffffffffffffffffff1673ffffffffffffffffffffffffffffffffffffffff16815260200190815260200160002060020160156101000a81548160ff02191690831515021790555060006040518060600160405280858152602001600160008673ffffffffffffffffffffffffffffffffffffffff1673ffffffffffffffffffffffffffffffffffffffff16815260200190815260200160002060000154815260200160011515815250905080600260008573ffffffffffffffffffffffffffffffffffffffff1673ffffffffffffffffffffffffffffffffffffffff168152602001908152602001600020600082015181600001556020820151816001015560408201518160020160006101000a81548160ff021916908315150217905550905050600360008581526020019081526020016000206000815480929190610e0e90611fc9565b91905055506005819080600181540180825580915050600190039060005260206000209060030201600090919091909150600082015181600001556020820151816001015560408201518160020160006101000a81548160ff02191690831515021790555050508273ffffffffffffffffffffffffffffffffffffffff167fa36cc2bebb74db33e9f88110a07ef56e1b31b24b4c4f51b54b1664266e29f45b85604051610ebb919061182b565b60405180910390a28091505092915050565b60058181548110610edd57600080fd5b90600052602060002090600302016000915090508060000154908060010154908060020160009054906101000a900460ff16905083565b60008054906101000a900473ffffffffffffffffffffffffffffffffffffffff1681565b6001602052806000526040600020600091509050806000015490806001018054610f6190611e91565b80601f0160208091040260200160405190810160405280929190818152602001828054610f8d90611e91565b8015610fda5780601f10610faf57610100808354040283529160200191610fda565b820191906000526020600020905b815481529060010190602001808311610fbd57829003601f168201915b5050505050908060020160009054906101000a900473ffffffffffffffffffffffffffffffffffffffff16908060020160149054906101000a900460ff16908060020160159054906101000a900460ff16905085565b6000600480549050905090565b600060036000838152602001908152602001600020549050919050565b60008054906101000a900473ffffffffffffffffffffffffffffffffffffffff1673ffffffffffffffffffffffffffffffffffffffff163373ffffffffffffffffffffffffffffffffffffffff16146110e8576040517f08c379a00000000000000000000000000000000000000000000000000000000081526004016110df90612083565b60405180910390fd5b60006040518060800160405280868152602001858152602001848152602001838152509050600681908060018154018082558091505060019003906000526020600020906004020160009091909190915060008201518160000155602082015181600101908051906020019061115f9291906113a0565b50604082015181600201908051906020019061117c9291906113a0565b5060608201518160030190805190602001906111999291906113a0565b5050507f52b689af7ae3bd15a5156582545571237b58abd804c1456c3269d1b1ee93f6fc858585856040516111d19493929190611935565b60405180910390a15050505050565b60026020528060005260406000206000915090508060000154908060010154908060020160009054906101000a900460ff16905083565b60008054906101000a900473ffffffffffffffffffffffffffffffffffffffff1673ffffffffffffffffffffffffffffffffffffffff163373ffffffffffffffffffffffffffffffffffffffff16146112a5576040517f08c379a000000000000000000000000000000000000000000000000000000000815260040161129c90612083565b60405180910390fd5b600073ffffffffffffffffffffffffffffffffffffffff168173ffffffffffffffffffffffffffffffffffffffff1603611314576040517f08c379a000000000000000000000000000000000000000000000000000000000815260040161130b90612115565b60405180910390fd5b806000806101000a81548173ffffffffffffffffffffffffffffffffffffffff021916908373ffffffffffffffffffffffffffffffffffffffff16021790555050565b6040518060a001604052806000815260200160608152602001600073ffffffffffffffffffffffffffffffffffffffff1681526020016000151581526020016000151581525090565b8280546113ac90611e91565b90600052602060002090601f0160209004810192826113ce5760008555611415565b82601f106113e757805160ff1916838001178555611415565b82800160010185558215611415579182015b828111156114145782518255916020019190600101906113f9565b5b5090506114229190611449565b5090565b604051806060016040528060008152602001600081526020016000151581525090565b5b8082111561146257600081600090555060010161144a565b5090565b6000604051905090565b600080fd5b600080fd5b6000819050919050565b61148d8161147a565b811461149857600080fd5b50565b6000813590506114aa81611484565b92915050565b600080fd5b600080fd5b6000601f19601f8301169050919050565b7f4e487b7100000000000000000000000000000000000000000000000000000000600052604160045260246000fd5b611503826114ba565b810181811067ffffffffffffffff82111715611522576115216114cb565b5b80604052505050565b6000611535611466565b905061154182826114fa565b919050565b600067ffffffffffffffff821115611561576115606114cb565b5b61156a826114ba565b9050602081019050919050565b82818337600083830152505050565b600061159961159484611546565b61152b565b9050828152602081018484840111156115b5576115b46114b5565b5b6115c0848285611577565b509392505050565b600082601f8301126115dd576115dc6114b0565b5b81356115ed848260208601611586565b91505092915050565b600073ffffffffffffffffffffffffffffffffffffffff82169050919050565b6000611621826115f6565b9050919050565b61163181611616565b811461163c57600080fd5b50565b60008135905061164e81611628565b92915050565b60008060006060848603121561166d5761166c611470565b5b600061167b8682870161149b565b935050602084013567ffffffffffffffff81111561169c5761169b611475565b5b6116a8868287016115c8565b92505060406116b98682870161163f565b9150509250925092565b6116cc8161147a565b82525050565b600081519050919050565b600082825260208201905092915050565b60005b8381101561170c5780820151818401526020810190506116f1565b8381111561171b576000848401525b50505050565b600061172c826116d2565b61173681856116dd565b93506117468185602086016116ee565b61174f816114ba565b840191505092915050565b61176381611616565b82525050565b60008115159050919050565b61177e81611769565b82525050565b600060a08301600083015161179c60008601826116c3565b50602083015184820360208601526117b48282611721565b91505060408301516117c9604086018261175a565b5060608301516117dc6060860182611775565b5060808301516117ef6080860182611775565b508091505092915050565b600060208201905081810360008301526118148184611784565b905092915050565b6118258161147a565b82525050565b6000602082019050611840600083018461181c565b92915050565b60006020828403121561185c5761185b611470565b5b600061186a8482850161149b565b91505092915050565b600082825260208201905092915050565b600061188f826116d2565b6118998185611873565b93506118a98185602086016116ee565b6118b2816114ba565b840191505092915050565b6118c681611616565b82525050565b6118d581611769565b82525050565b600060a0820190506118f0600083018861181c565b81810360208301526119028187611884565b905061191160408301866118bd565b61191e60608301856118cc565b61192b60808301846118cc565b9695505050505050565b600060808201905061194a600083018761181c565b818103602083015261195c8186611884565b905081810360408301526119708185611884565b905081810360608301526119848184611884565b905095945050505050565b600081519050919050565b600082825260208201905092915050565b6000819050602082019050919050565b600060a0830160008301516119d360008601826116c3565b50602083015184820360208601526119eb8282611721565b9150506040830151611a00604086018261175a565b506060830151611a136060860182611775565b506080830151611a266080860182611775565b508091505092915050565b6000611a3d83836119bb565b905092915050565b6000602082019050919050565b6000611a5d8261198f565b611a67818561199a565b935083602082028501611a79856119ab565b8060005b85811015611ab55784840389528151611a968582611a31565b9450611aa183611a45565b925060208a01995050600181019050611a7d565b50829750879550505050505092915050565b600081519050919050565b600082825260208201905092915050565b6000819050602082019050919050565b606082016000820151611b0960008501826116c3565b506020820151611b1c60208501826116c3565b506040820151611b2f6040850182611775565b50505050565b6000611b418383611af3565b60608301905092915050565b6000602082019050919050565b6000611b6582611ac7565b611b6f8185611ad2565b9350611b7a83611ae3565b8060005b83811015611bab578151611b928882611b35565b9750611b9d83611b4d565b925050600181019050611b7e565b5085935050505092915050565b60006040820190508181036000830152611bd28185611a52565b90508181036020830152611be68184611b5a565b90509392505050565b60008060408385031215611c0657611c05611470565b5b6000611c148582860161149b565b9250506020611c258582860161163f565b9150509250929050565b606082016000820151611c4560008501826116c3565b506020820151611c5860208501826116c3565b506040820151611c6b6040850182611775565b50505050565b6000606082019050611c866000830184611c2f565b92915050565b6000606082019050611ca1600083018661181c565b611cae602083018561181c565b611cbb60408301846118cc565b949350505050565b6000602082019050611cd860008301846118bd565b92915050565b600060208284031215611cf457611cf3611470565b5b6000611d028482850161163f565b91505092915050565b60008060008060808587031215611d2557611d24611470565b5b6000611d338782880161149b565b945050602085013567ffffffffffffffff811115611d5457611d53611475565b5b611d60878288016115c8565b935050604085013567ffffffffffffffff811115611d8157611d80611475565b5b611d8d878288016115c8565b925050606085013567ffffffffffffffff811115611dae57611dad611475565b5b611dba878288016115c8565b91505092959194509250565b7f566f74657220697320616c726561647920726567697374657265640000000000600082015250565b6000611dfc601b83611873565b9150611e0782611dc6565b602082019050919050565b60006020820190508181036000830152611e2b81611def565b9050919050565b6000604082019050611e47600083018561181c565b8181036020830152611e598184611884565b90509392505050565b7f4e487b7100000000000000000000000000000000000000000000000000000000600052602260045260246000fd5b60006002820490506001821680611ea957607f821691505b602082108103611ebc57611ebb611e62565b5b50919050565b7f566f746572206973206e6f742072656769737465726564000000000000000000600082015250565b6000611ef8601783611873565b9150611f0382611ec2565b602082019050919050565b60006020820190508181036000830152611f2781611eeb565b9050919050565b7f566f7465722068617320616c726561647920766f746564000000000000000000600082015250565b6000611f64601783611873565b9150611f6f82611f2e565b602082019050919050565b60006020820190508181036000830152611f9381611f57565b9050919050565b7f4e487b7100000000000000000000000000000000000000000000000000000000600052601160045260246000fd5b6000611fd48261147a565b91507fffffffffffffffffffffffffffffffffffffffffffffffffffffffffffffffff820361200657612005611f9a565b5b600182019050919050565b7f4f6e6c792074686520636f6e7472616374206f776e65722063616e207065726660008201527f6f726d207468697320616374696f6e0000000000000000000000000000000000602082015250565b600061206d602f83611873565b915061207882612011565b604082019050919050565b6000602082019050818103600083015261209c81612060565b9050919050565b7f4e6577206f776e65722063616e6e6f7420626520746865207a65726f2061646460008201527f7265737300000000000000000000000000000000000000000000000000000000602082015250565b60006120ff602483611873565b915061210a826120a3565b604082019050919050565b6000602082019050818103600083015261212e816120f2565b905091905056fea264697066735822122013e42f2231606e1183221aaa48400613ee78b1b4a919c9f0a5fa5c7a9ddf941464736f6c634300080e0033",
  "immutableReferences": {},
  "source": "// SPDX-License-Identifier: MIT\r\npragma solidity ^0.8.0;\r\n\r\ncontract Voting {\r\n    address public owner;\r\n    \r\n    struct Voter {\r\n        uint id;\r\n        string name;\r\n        address voterAddress;\r\n        bool isRegistered;\r\n        bool hasVoted;\r\n    }\r\n\r\n    struct Vote {\r\n        uint candidateId;\r\n        uint voterId;\r\n        bool isVoted;\r\n    }\r\n\r\n    // Define Candidate as a struct\r\n    struct Candidate {\r\n        uint id;\r\n        string name;\r\n        string party;\r\n        string photo;\r\n    }\r\n\r\n    // Mapping to store voters by their address\r\n    mapping(address => Voter) public voters;\r\n    // Mapping to store votes by voter address\r\n    mapping(address => Vote) public votes;\r\n    // Mapping to store vote counts for each candidate\r\n    mapping(uint => uint) public voteCounts;\r\n    // Array to store all registered voters\r\n    Voter[] public registeredVoters;\r\n    // Array to store all cast votes\r\n    Vote[] public castVotes;\r\n    // Array to store candidates\r\n    Candidate[] public candidates;\r\n\r\n    // Event to emit when a candidate is added\r\n    event CandidateAdded(uint id, string name, string party, string photo);\r\n    // Event to emit when a voter is registered\r\n    event VoterRegistered(address indexed voterAddress, uint id, string name);\r\n    // Event to emit when a vote is cast\r\n    event VoteCast(address indexed voterAddress, uint candidateId);\r\n\r\n    // Modifier to restrict access to owner only\r\n    modifier onlyOwner() {\r\n        require(msg.sender == owner, \"Only the contract owner can perform this action\");\r\n        _;\r\n    }\r\n\r\n    // Constructor to set the contract owner\r\n    constructor() {\r\n        owner = msg.sender;\r\n    }\r\n\r\n    // Function to add candidates (Owner only)\r\n    function addCandidate(uint _id, string memory _name, string memory _party, string memory _photo) public onlyOwner {\r\n        Candidate memory newCandidate = Candidate(_id, _name, _party, _photo);\r\n        candidates.push(newCandidate);\r\n        emit CandidateAdded(_id, _name, _party, _photo);\r\n    }\r\n\r\n    // Function to register voter\r\n    function registerVoter(uint _id, string memory _name, address _voterAddress) public returns (Voter memory) {\r\n        require(!voters[_voterAddress].isRegistered, \"Voter is already registered\");\r\n        Voter memory newVoter = Voter(_id, _name, _voterAddress, true, false);\r\n        voters[_voterAddress] = newVoter;\r\n        registeredVoters.push(newVoter);\r\n        emit VoterRegistered(_voterAddress, _id, _name);\r\n        return newVoter;\r\n    }\r\n\r\n    // Function to cast vote\r\n    function castVote(uint _candidateId, address _voterAddress) public returns (Vote memory) {\r\n        require(voters[_voterAddress].isRegistered, \"Voter is not registered\");\r\n        require(!voters[_voterAddress].hasVoted, \"Voter has already voted\");\r\n\r\n        voters[_voterAddress].hasVoted = true;\r\n        Vote memory newVote = Vote(_candidateId, voters[_voterAddress].id, true);\r\n        votes[_voterAddress] = newVote;\r\n        voteCounts[_candidateId]++;\r\n        castVotes.push(newVote);\r\n        emit VoteCast(_voterAddress, _candidateId);\r\n        return newVote;\r\n    }\r\n\r\n    // Function to get the total number of votes for a candidate\r\n    function getVoteCount(uint _candidateId) public view returns (uint) {\r\n        return voteCounts[_candidateId];\r\n    }\r\n\r\n    // Function to get the total number of registered voters\r\n    function getRegisteredVotersCount() public view returns (uint) {\r\n        return registeredVoters.length;\r\n    }\r\n\r\n    // Function to get the total number of cast votes\r\n    function getCastVotesCount() public view returns (uint) {\r\n        return castVotes.length;\r\n    }\r\n\r\n    // Function to get audits\r\n    function getAudits() public view returns (Voter[] memory, Vote[] memory) {\r\n        return (registeredVoters, castVotes);\r\n    }\r\n\r\n    // Function to transfer ownership (Owner only)\r\n    function transferOwnership(address newOwner) public onlyOwner {\r\n        require(newOwner != address(0), \"New owner cannot be the zero address\");\r\n        owner = newOwner;\r\n    }\r\n}",
  "sourcePath": "C:\\Users\\labz\\Desktop\\VoterDapp\\contracts\\Voting.sol",
  "compiler": {
    "name": "solc",
    "version": "0.8.14+commit.80d49f37.Emscripten.clang"
  },
  "schemaVersion": "3.4.16",
  "updatedAt": "2025-08-08T09:32:34.090Z",
  "networkType": "ethereum",
  "devdoc": {
    "kind": "dev",
    "methods": {},
    "version": 1
  },
  "userdoc": {
    "kind": "user",
    "methods": {},
    "version": 1
  }
}